:100000000C942B090C9447090C9447090C9447094C
:100010000C9447090C9447090C9447090C94470920
:100020000C9447090C9447090C947F100C94DB1036
:100030000C9447090C9447090C9447090C94470900
:100040000C9447090C9447090C9447090C944709F0
:100050000C9447090C9447090C9447090C944709E0
:100060000C9447090C9447090C9447090C944709D0
:100070000C9447090C9447090C9447090C944709C0
:100080000C9447090C9447090C9447090C944709B0
:100090000C9447090C9447090C9447090C944709A0
:1000A0000C9447090C9447090C9447090000080F69
:1000B000080F080F080F080F080F080F080F080F88
:1000C000080F080F080F0000080F080F080F080F8F
:1000D000080F0000000000000000080F080F080FC4
:1000E000080F080FAF0F080F080F080F080F080FB1
:1000F0004A0F4A0F080F080F080F080F080FAF0F1D
:10010000080F080F080F080F080F080F0000000065
:10011000080F080F080F080F080F080F080F080F27
:10012000080F080F080F080F0000080F080F080F2E
:10013000080F080F080F080F080F080F080F080F07
:10014000080F080F080F0000080F080F080F080F0E
:10015000080F080F00002F0F2F0F2F0F2F0F2F0F3B
:100160002F0F2F0F2F0F2F0F2F0F2F0F2F0F0000DD
:100170002F0F2F0F2F0F2F0F2F0F2F0F2F0F2F0F8F
:100180002F0F2F0F2F0F2F0F2F0F2F0F2F0F080FA6
:10019000080F080F080FAA0F4E0F4E0FAA0F080FD7
:1001A000080F080F080F080F2F0F080F080F080F70
:1001B000080FAA0F00000000080F080FAA0FAA0FCF
:1001C000AA0F080F2F0FAA0FAA0F080F080F000081
:1001D00000002F0F0000080FAA0FAA0F080F080F2A
:1001E0000000080F080F080F080F080F080F080F6E
:1001F000080F080F080F080F080F080F0000000075
:1002000000000000000000000000000000000000EE
:1002100000000000000000000000000000000000DE
:1002200000000000000000000000000000000000CE
:1002300000000000000000000000000000000000BE
:1002400000000000000000000000000000000000AE
:10025000000000000000000000000000000000009E
:10026000000000000000000000000000000000008E
:10027000000000000000000000000000000000007E
:10028000000000000000000000000000000000006E
:10029000000000000000000000000000000000005E
:1002A0000000000000002F0F2F0F2F0F2F0F2F0F18
:1002B0002F0F2F0F2F0F2F0F080F2F0F2F0F0000B3
:1002C0002F0F080F2F0F2F0F2F0F2F0F2F0F2F0F65
:1002D0002F0F2F0F2F0F080F080F2F0F2F0F2F0F7C
:1002E0002F0F2F0F2F0F2F0F2F0F2F0F2F0F080F45
:1002F000080F080F080F2F0F2F0F2F0F2F0F2F0F83
:100300002F0F2F0F000000002F0F080F080F080FEE
:10031000080F2F0F2F0F2F0F2F0F2F0F2F0F2F0F14
:100320002F0F2F0F2F0F080F080F080F080F2F0F79
:100330002F0F2F0F2F0F2F0F2F0F2F0F2F0F00000B
:100340002F0F0000080F080F080F2F0F00000000EC
:100350000000000000004C0F4E0F600F620F000005
:10036000000000000000000000000000000000008D
:100370000000700F000000000000000000000000FE
:10038000000000000000000000000000480F4A0FBD
:10039000000000000000000000005C0F5E0F221053
:1003A000000000002F0F6C0F6E0F00000000000017
:1003B00000000000580F5A0F031000000000100F3B
:1003C000680F6A0F0000000000000000540F560F75
:1003D000AF0F000000000000080F640F660F000060
:1003E000000000000000500F520F0000000000004D
:1003F00000000000000000000000000000000000FD
:1004000000000000000000000000000000000000EC
:1004100000000000000000000000000000000000DC
:1004200000000000000000000000000000000000CC
:100730000000000000000000000000000000080FA2
:10074000080F080F080F080F080F080F080F080FF1
:10075000080F080F080F0000080F080F080F080FF8
:10076000080F0000000000000000080F080F080F2D
:10077000080F080FAF0F080F080F080F080F080F1A
:10078000480F480F080F080F080F080F080FAF0F8A
:10079000080F080F080F080F080F080F00000000CF
:1007A000080F080F080F080F080F080F080F080F91
:1007B000080F080F080F080F480F080F080F080F41
:1007C000080F080F080F080F080F080F080F080F71
:1007D000080F080F080F0310080F080F080F080F65
:1007E000080F080F00002F0F2F0F2F0F2F0F2F0FA5
:1007F0002F0F2F0F2F0F2F0F2F0F2F0F2F0F000047
:100800002F0F2F0F2F0F2F0F2F0F2F0F2F0F2F0FF8
:100810002F0F2F0F2F0F2F0F2F0F2F0F2F0F080F0F
:10082000080F080F080FAA0F4C0F4C0FAA0F080F44
:10083000080F080F080F080F2F0F080F080F080FD9
:10084000080FAA0F00000000080F080FAA0FAA0F38
:10085000AA0F080F2F0FAA0FAA0F080F080F0000EA
:100860004A0F2F0F0000080FAA0FAA0F080F080F3A
:100870000000080F080F080F080F080F080F080FD7
:10088000080F080F080F080F080F080F00000000DE
:100890000000000000000000000000000000000058
:1008A0000000000000000000000000000000000048
:1008B0000000000000000000000000000000000038
:1008C0000000000000000000000000000000000028
:1008D0000000000000000000000000000000000018
:1008E0000000000000000000000000000000000008
:1008F00000000000000000000000000000000000F8
:1009000000000000000000000000000000000000E7
:100910000000000000000000700F00000000000058
:1009200000000000000000000000000000000000C7
:100930000000000000002F0F2F0F2F0F2F0F2F0F81
:100940002F0F2F0F2F0F2F0F080F2F0F2F0F00001C
:100950002F0F080F2F0F2F0F2F0F2F0F2F0F2F0FCE
:100960002F0F2F0F2F0F080F080F2F0F2F0F2F0FE5
:100970002F0F2F0F2F0F2F0F2F0F2F0F2F0F080FAE
:10098000080F080F080F2F0F2F0F2F0F2F0F2F0FEC
:100990002F0F2F0F000000002F0F080F080F080F58
:1009A000080F2F0F2F0F2F0F2F0F2F0F2F0F2F0F7E
:1009B0002F0F2F0F2F0F080F080F080F080F2F0FE3
:1009C0002F0F2F0F2F0F2F0F2F0F2F0F2F0F221043
:1009D0002F0F2210080F080F080F2F0F0000000024
:1009E0000000000000000000000000000000000007
:1009F00000000000000000000000000000000000F7
:100A000000000000000000000000000000000000E6
:100A100000000000000000000000000000000000D6
:100DC00000000000000000000000000000E04C2ACD
:100DD000E24D4A4B4EE62C28E4003531504FE300FB
:100DE000000000E75051524FE11D1B06190501019B
:100DF0001110363738E52B041607090A00000B0DD1
:100E00000E0F333431141A081517012F1C180C1249
:100E100013302E1E1F202122290323242526272DAF
:100E200000000000000000000000000000000000C2
:100E3000000000000000000000000000005E5F6095
:100E4000612E0202255A5B5C5D7F0033382D6233D0
:100E50000000315926272E81002F302F300001004D
:100E6000002D3637B480003A3B3C3D3E44453F4080
:100E70004142436600000000000000000000000046
:100E80000000000000000000000000000000000062
:100E90000000000000000000000000000000000052
:100EA0000000000000000000000000000000000042
:100EB0000000000000000000000000000000000032
:100EC0000000000000000000000000000000000022
:100ED0000000620000000049000000000000000067
:100EE00000375800000000000000000000595A5B65
:100EF00058000000000000000000005C5D5E57002C
:100F00000000000000000000005F6061560000006B
:100F100000000000000300036754550000000000BB
:100F200000000000000000000000000000000000C1
:100F300000000000000000000000000000000000B1
:100F400000000000000000000000000000000000A1
:100F50000000000000000000000000000000000091
:100F60000000000000000000000000000000000081
:100F70000000000000000000000000000000000071
:100F80000000000000000000000000000000000061
:100F90000000000000000000000000000000000051
:100FA0000000000000000000000000000000000041
:100FB0000000000000000000000000000000000031
:100FC0000000000000000000000000000000000021
:100FD0000000000000000000000000000000000011
:100FE0000000000000000000000000000000000001
:100FF00000000000000000000000000000000000F1
:1010000000000000000000000000000000000000E0
:1010100000000000000000000000000000000000D0
:1010200000000000000000000000000000000000C0
:1010300000000000000000000000000000000000B0
:1010400000000000000000000000000000000000A0
:101050000000000000000000000000000000000090
:101060000000000000000000000000000000000080
:101070000000000000000000000000000000000070
:101080000000000000000000000000000000000060
:101090000000000000000000000000000000000050
:1010A0000000000000000000000000000000000040
:1010B0000000000000000000000000000000000030
:1010C0000000000000000000000000000000000020
:1010D0000000000000000000000000000000000010
:1010E0000000000000000000000000000000000000
:1010F00000000000000000000000000000000000F0
:1011000000000000000000000000000000000000DF
:1011100000000000000100003C121200020000A9C3
:10112000113B00210000BB110900220000FD113F0E
:1011300000210100D4110900220100E4111900036B
:101140000000A51104010309048B1118020309040E
:1011500053113636034500720067006F0044006F7C
:1011600000780020006500720067006F006E006F5D
:10117000006D006900630020006B0065007900626B
:10118000006F006100720064000000180375006EBB
:101190000073007000650063006900660069006507
:1011A00000640000000403090409023B000201007E
:1011B000C0320904000001030101000921110100EE
:1011C00001223F000705810308000A09040100010C
:1011D0000300000009211101000122190007058206
:1011E0000308000A050C0901A10185031501269CCD
:1011F0000219012A9C02751095018100C0050109A0
:1012000006A10175019508050719E029E7150025D4
:10121000018102950175088103950575010508197D
:10122000012905910295017503910395067508152D
:101230000025680507190029688100C01201000215
:1012400000000020501D286000010102000101C1C2
:101250000601C106000011241FBECFEFDAE0DEBF99
:10126000CDBF11E0A0E0B1E0EAE0F5E202C00590F8
:101270000D92AA31B107D9F722E0AAE1B1E001C08D
:101280001D92AF3CB207E1F7CCD00C9483120C94C2
:10129000000020911A01281760F030E0281B310966
:1012A000F901EE0FFF1FE20FF31FE757FD4F80819B
:1012B000089580E0089520911A01281760F030E029
:1012C000281B3109F901EE0FFF1FE20FF31FE7574B
:1012D000FD4F8281089580E00895982FE1E0F1E0CC
:1012E00041E050E0842F2191211117C0FA01E05014
:1012F000FF4F21E02083E0911A01EF5FE0931A0194
:101300002E2F30E0F901EE0FFF1FE20FF31FE7571A
:10131000FD4F90834183628308954F5F5F4F443157
:10132000510501F780E0089520911A0191E02917F5
:1013300008F40895492F50E0FA01EE0FFF1FE40F63
:10134000F51FE757FD4F3181381326C083E0989F82
:10135000F0011124E757FD4F33969217A0F0822F2A
:1013600090E0FC01EE0FFF1FE80FF91FE757FD4F5C
:1013700010821182E32FF0E0E050FF4F10822150E5
:1013800020931A0108958081DF0113978C93818146
:1013900011968C939F5FE0CF9F5FC9CF2091C702CA
:1013A00090918702E09188028091CA02222341F144
:1013B00024E5E29FF00111242EE0929FE00DF11D43
:1013C0001124E80FF11DEE0FFF1FE45CF84F85912B
:1013D0009491009711F0FC01099580911A01282F32
:1013E00030E0F901EE0FFF1FE20FF31FE757FD4F4B
:1013F00092819230A9F490913202992389F094CF8E
:1014000024E5E29FF00111242EE0929FE00DF11DF2
:101410001124E80FF11DEE0FFF1FE455FF4FD7CF4A
:101420000895E4D08CE090E0909389008093880048
:1014300090938B0080938A0090938D0080938C0012
:10144000259A269A279A09D61FD68823E9F38FE78B
:1014500090E090938900809388002FE732E440E188
:10146000215030404040E1F700C0000090938B00D5
:1014700080938A002FE732E440E121503040404021
:10148000E1F700C0000090938D0080938C002FE75F
:1014900032E440E1215030404040E1F700C000001C
:1014A0002598269827989093890080938800909398
:1014B0008B0080938A0090938D0080938C001EE0B7
:1014C000809114019091150120911601309117011E
:1014D0003093150120931401909317018093160106
:1014E00090D010923102809131028630C8F0CFD571
:1014F000E6D78FE19EE40197F1F700C000008091EC
:101500001A01882309F46DC0259A269A8091270232
:1015100082FF6AC0279A8091270280912702D0CF4C
:101520001092C802D090C802009131028DE08D1552
:1015300020F40F5F00933102D6CFED2CF12CE09117
:101540001601F0911701109FC0011124E80FF91F37
:10155000EE0DFF1D20812093C702E0911401F09150
:101560001501E80FF91FEE0DFF1D30813093C50204
:10157000231719F1EC01CD5CDD4F222321F180E02E
:1015800088DE80938802CE0DDF1D88831092C6020C
:1015900000938702D092CA021092C902FFDEE09146
:1015A00031028091C8021E9FF0011124E55EFE4FBA
:1015B000E80FF11D8091C60280838091C8028F5F81
:1015C0008093C802AFCFCE0DDF1D28812093880203
:1015D000855E9E4FFC01EE0DFF1D80818093C6024B
:1015E000D7CF2598269892CF279895CFBAD081113A
:1015F00004C018D0811103C0089581E0089582E0ED
:101600000895CF93DF93EC0175D1811107C0CE010E
:1016100034D0811105C0DF91CF91089581E0FBCFD7
:1016200082E0F9CFCF9350D380E46DD3C82F8111DE
:1016300020C080E068D380E866D38FEF64D35BD3AB
:1016400043D380E460D3C82F811113C08CE05BD3F7
:1016500080E859D38FEF57D34ED336D380E453D39A
:10166000C82F811106C084E14ED38FEF4CD38FEF8A
:101670004AD341D38C2FCF910895BF92CF92DF925E
:10168000EF92FF920F931F93CF93DF931F92CDB7EB
:10169000DEB78C01C7DFB82E8823D1F086E0980131
:1016A000295F3F4FF8011192E217F307E1F78150EC
:1016B000025F1F4F8111F3CF8B2D0F90DF91CF91E0
:1016C0001F910F91FF90EF90DF90CF90BF90089502
:1016D000E12CF12CCC24C394D12CF6D280E413D38A
:1016E00082E111D3C6010E2C01C0880F0A94EAF7DB
:1016F000809509D300D3E8D280E405D383E103D3F6
:10170000E3D281E400D3CE0101961BD3F4D2498108
:1017100050E0F801EE0DFF1D25E030E0CA01022E79
:1017200002C0959587950A94E2F78095909581700F
:101730008083215031093E962F3F8FEF380771F794
:101740008FEFE81AF80A87E0E816F10409F0C5CF30
:10175000BBD280E4D8D282E1D6D28FEFD4D2CBD222
:10176000ABCFE1E6F0E080E88083108256985E9887
:1017700024982C9825982698279889EA80938000A9
:1017800089E08093810097D23F9885E08A95F1F7B0
:101790000000579885E08A95F1F70000549885E09D
:1017A0008A95F1F70000559885E08A95F1F70000D9
:1017B0006E9885E08A95F1F70000479A85E08A9552
:1017C000F1F700005F9A85E08A95F1F700005C9AD6
:1017D00085E08A95F1F700005D9A85E08A95F1F73A
:1017E0000000769A85E08A95F1F70000879885E0F9
:1017F0008A95F1F70000869885E08A95F1F7000058
:10180000859885E08A95F1F70000849885E08A95AF
:10181000F1F70000819885E08A95F1F70000809843
:1018200085E08A95F1F70000209885E08A95F1F728
:101830000000219885E08A95F1F70000229885E064
:101840008A95F1F70000239885E08A95F1F700006A
:10185000529885E08A95F1F70000539885E08A95C3
:10186000F1F700003E9885E08A95F1F700008F9A25
:1018700085E08A95F1F700008E9A85E08A95F1F768
:1018800000008D9A85E08A95F1F700008C9A85E03A
:101890008A95F1F70000899A85E08A95F1F70000B2
:1018A000889A85E08A95F1F70000289885E08A9566
:1018B000F1F70000299885E08A95F1F700002A9851
:1018C00085E08A95F1F700002B9885E08A95F1F77D
:1018D00000005A9885E08A95F1F700005B9885E052
:1018E0008A95F1F70000469885E08A95F1F70000A7
:1018F00080E00895CF93DF93FC01209A85E08A95DC
:10190000F1F700008FB18095881F8827881F878393
:101910009FB181E096FB992790F99827958B9FB10D
:1019200095FB992790F9982793A39FB19295917071
:10193000982791AB9FB196959170982797AF9FB1DB
:10194000DF01AA5BBF4F9095917017969C931797F4
:10195000209895E09A95F1F70000219A95E09A95E4
:10196000F1F700009FB19095991F9927991F9087D3
:101970009FB196FB992790F99827968B9FB195FB7D
:10198000992790F9982794A39FB1929591709827E1
:1019900092AB9FB1EF01C05CDF4F96959170982795
:1019A00098839FB19095917018969C931897219861
:1019B00095E09A95F1F70000229A95E09A95F1F753
:1019C00000009FB19095991F9927991F91879FB10A
:1019D00096FB992790F99827978B9FB195FB9927AC
:1019E00090F9982795A39FB192959170982793AB02
:1019F0009FB1219696959170982798839FB1909565
:101A0000917019969C931997229895E09A95F1F701
:101A10000000239A95E09A95F1F700009FB1909508
:101A2000991F9927991F92879FB196FB992790F943
:101A30009827908F9FB195FB992790F9982796A3A7
:101A40009FB192959170982794AB9FB121969695EE
:101A50009170982798839FB1909591701A969C9356
:101A60001A97239895E09A95F1F70000529A95E01D
:101A70009A95F1F700009FB19095991F9927991FAA
:101A800093879FB196FB992790F99827918F9FB1E3
:101A900095FB992790F9982797A39FB192959170FC
:101AA000982795AB9FB1219696959170982798832A
:101AB0009FB1909591701B969C931B97529895E0BF
:101AC0009A95F1F70000539A95E09A95F1F7000086
:101AD0009FB19095991F9927991F94879FB196FB65
:101AE000992790F99827928F9FB195FB992790F9A4
:101AF000982790A79FB192959170982796AB9FB128
:101B0000219696959170982798839FB190959170A2
:101B10001C969C931C97539895E09A95F1F70000BA
:101B20003E9A95E09A95F1F700009FB19095991F24
:101B30009927991F95879FB196FB992790F9982728
:101B4000938F9FB195FB992790F9982791A79FB103
:101B500092959170982797AB9FB1EB5BFF4F96954D
:101B60009170892780838FB1809581701D968C93A9
:101B70003E9885E08A95F1F7000080E0DF91CF91F3
:101B80000895962F662309F463C0462F50E0FA01AA
:101B9000E05EF109E830F10508F03FC0ED52F24F88
:101BA00090912F02AAC4DB0DE30DE90DEF0DF50DA9
:101BB000FB0D010E070E882321F0916090932F02F8
:101BC00008959E7FFBCF882311F09260F7CF9D7F11
:101BD000F5CF882311F09460F1CF9B7FEFCF88235E
:101BE00011F09860EBCF977FE9CF882311F09061D7
:101BF000E5CF9F7EE3CF882311F09062DFCF9F7DFA
:101C0000DDCF882311F09064D9CF9F7BD7CF882375
:101C100011F09068D3CF9F77D1CFE9E2F2E020E0D6
:101C200030E04081882339F041110CC0275D3D4FE1
:101C3000F90190830895941305C0275D3D4FF90184
:101C4000108208952F5F3F4F31962630310549F7B6
:101C50000895482F50E0FA01E05EF109E830F105FF
:101C6000E8F4EA5CF14F90912F0247C43E0E400E1B
:101C7000420E440E460E480E4A0E4C0E90FD19C000
:101C800091FD17C092FD15C093FD13C094FD11C0C6
:101C900095FD0FC096FD0DC097FD0BC0E9E2F2E087
:101CA0009191891731F092E0EF32F907C9F780E09E
:101CB000089581E00895E9EBF0E080818C7F8083D6
:101CC00088E48093B800089584EA8093BC008091F2
:101CD000BC0087FFFCCF8091B900887F883049F035
:101CE0008091B900887F803121F08091B900887F90
:101CF000089580E0089584E98093BC008091BC0041
:101D000084FDFCCF08958093BB0084E88093BC00E1
:101D10008091BC0087FFFCCF8091B900887F88311B
:101D200071F08091B900887F883249F08091B900C4
:101D3000887F803421F08091B900887F089580E009
:101D4000089524EC2093BC002091BC0027FFFCCF19
:101D50002091BB00FC0120838091B900887F8035F1
:101D600021F08091B900887F089580E00895CF9395
:101D7000DF93C82FD0E0C95EDD4F8881882311F042
:101D8000D3DA1882DF91CF910895CF93DF93D82FC4
:101D900080918702E091880294E5E99FF001112487
:101DA0009EE0899FE00DF11D11248091CA02E80F89
:101DB000F11DE453F24FC4918D2FD9DF80E07BDA1F
:101DC0008150823018F480E064DAAEDA60E08C2F63
:101DD00084DAED2FF0E0E95EFD4F8083DF91CF9153
:101DE000089580918702E091880294E5E99FF001CF
:101DF00011249EE0899FE00DF11D11248091CA02FB
:101E0000E80FF11DE453F24F64918091C702B9CEFF
:101E10008091C602811103C081E080933202E1CF3C
:101E2000CF9380918702E091880294E5E99FF001C9
:101E300011249EE0899FE00DF11D11248091CA02BA
:101E4000E80FF11DE453F24FC4918C2F02DF6C2F89
:101E5000882319F080E0CF9194CE81E0FCCF81E01F
:101E60008093C6028091C9028F5F8093C90211DA04
:101E700080938802E09187029091CA022EE0E29F4F
:101E8000F0011124ED5CFD4FE90FF11D808386CA3E
:101E900081E07BCF81E06BCF82E077CF82E067CFBC
:101EA00083E073CF83E063CF84E06FCF84E05FCFC4
:101EB00085E06BCF85E05BCF86E067CF86E057CFCC
:101EC00087E063CF87E053CF88E05FCF88E04FCFD4
:101ED00089E05BCF89E04BCF8AE057CF8AE047CFDC
:101EE000F89481E08093E00080E28093D800E9ECF0
:101EF000F0E010828FE19EE40197F1F700C000004E
:101F00001DBA109268001CBC10BE1FBA10927A0055
:101F100010926E0010926F00109271001092720079
:101F20001082ECEBF0E0108214B817B81AB81DB8A4
:101F300010BA108215B818B81BB81EB811BA0C9494
:101F4000003F089563E881E01CDEA1D063E880E0F3
:101F500018DE9DC061EE8091C70213DE59CF8091DB
:101F60008702E091880294E5E99FF00111249EE048
:101F7000899FE00DF11D11248091CA02E80FF11D27
:101F8000E453F24F64918091C702811105C0909192
:101F90002402915090932402F4DD80912402813038
:101FA00041F58091C702882369F181EE52DE80936A
:101FB000230285EE4EDE8093220261EE80E0E1DDB9
:101FC00065EE80E0DEDD69E381E0DBDD60D069E3C2
:101FD00080E0D7DD5CD080912302882319F061EE88
:101FE00081E0CFDD80912202882319F065EE81E047
:101FF000C8DD8091C702882329F0809124028F5F79
:10200000809324020895CF9380918702E091880203
:1020100094E5E99FF00111249EE0899FE00DF11DF8
:1020200011248091CA02E80FF11DE453F24FC491CC
:102030008091250279D960E08C2F4FD980932502B9
:10204000CF9180CF809125026FD9109225027ACF4F
:102050008091E80080FFFCCF089581E08093D70055
:1020600080EA8093D80082E189BD09B400FEFDCFEB
:1020700080E98093D8001092E000109230028CE04A
:102080008093E200789408958091300208958091C1
:102090003002811102C08FEF08958FB7F89491E05C
:1020A0009093E9009091E4009E5C21E03091E8007B
:1020B00035FD0EC08FBF80913002882361F380917F
:1020C000E400981741F38FB7F8942093E900EECF1E
:1020D00090912F029093F1001092F100E9E2F2E06A
:1020E00091919093F10092E0EF32F907C9F79AE3EA
:1020F0009093E800109228028FBF80E008951F920D
:102100000F920FB60F9211248F939F93EF93FF932B
:102110008091E1001092E10083FF0FC01092E9006E
:1021200091E09093EB001092EC0092E29093ED001E
:1021300098E09093F0001092300282FF33C08091BB
:102140003002882379F180911801882359F1809118
:1021500026028F5F80932602837021F581E08093B1
:10216000E9008091E80085FF1DC0809128028F5F03
:102170008093280290911801891314C010922802AC
:1021800080912F028093F1001092F100E9E2F2E0D9
:1021900081918093F10082E0EF32F807C9F78AE37A
:1021A0008093E800FF91EF919F918F910F900FBE68
:1021B0000F901F9018951F920F920FB60F92112437
:1021C000EF92FF920F931F932F933F934F935F9341
:1021D0006F937F938F939F93AF93BF93CF93DF932F
:1021E000EF93FF931092E9008091E80083FF75C0A0
:1021F000D091F100C091F1000091F1008091F100C7
:1022000010E0182BE090F1008091F100F12CF82AF9
:102210008091F1006091F10092EF9093E800C63058
:1022200009F065C024E131E143E551E1F901A591EF
:10223000B4910A171B0709F04AC0F9013296A5911B
:10224000B491EA16FB0609F042C0F90134964591B3
:102250005491F9013696E49190E0962B8F3F9105C9
:1022600019F010F08FEF90E0E81708F48E2F3EEF92
:102270009091E800292F2570D9F392FD11C0982F75
:10228000813208F090E2FA01292F21112AC0490F6A
:10229000511D891B3093E8008111EACF903241F340
:1022A000FF91EF91DF91CF91BF91AF919F918F916E
:1022B0007F916F915F914F913F912F911F910F915E
:1022C000FF90EF900F900FBE0F901F901895295F11
:1022D0003F4F4217530709F0A9CF81E28093EB00EB
:1022E000DFCF64916093F10021503196CECFC5309D
:1022F00041F48EEF8093E800ABDE00680093E300CA
:10230000CFCFC93049F5D1116AC0009330028EEFAA
:102310008093E80021E08EE492E12093E900AC0193
:102320004F5F5F4FFC0134913093EB00332391F00A
:10233000FA0144914093EC003196E4910396E093C6
:10234000ED002F5F253049F78EE18093EA0010926F
:10235000EA00A6CFCA01F5CFC83049F4D03809F059
:102360003EC076DE809130028093F10012C0C11130
:1023700014C06EDED23849F4E092E900C091EB005F
:10238000C5FBCC27C0F91092E900C093F100109270
:10239000F1008EEF8093E80083CF8C2F8D7F81300A
:1023A000F1F4D230E1F4012B09F097CF2E2D2F77E5
:1023B0008FEF820F843008F090CF8EEF8093E8008B
:1023C0002093E900C33009F488CF89E18093EB00C2
:1023D00081E090E001C0880F2A95EAF7B6CFEF2898
:1023E00009F07BCFD13A01F5C13089F431DE80911B
:1023F0002F028093F1001092F100E9E2F2E0819166
:102400008093F10082E0EF32F807C9F7C2CFC23003
:1024100021F41EDE80911801A7CFC33009F05DCFF3
:1024200017DE80911901A0CFD13209F056CFC93003
:1024300061F48091E80082FFFCCF8091F1008093ED
:1024400027028BEF8093E800A4CFCA3029F41093C1
:102450001801109228029DCFCB3009F03ECF009397
:10246000190197CF90913002911102C08FEF08951A
:102470009FB7F89422E02093E9002091E4002E5CBD
:1024800032E04091E80045FD0EC09FBF90913002C0
:10249000992361F39091E400291741F39FB7F894D1
:1024A0003093E900EECF8093F1006093F1007093D8
:1024B000F1008AE38093E8009FBF80E00895609177
:1024C000CB027091CC028091CD029091CE02681720
:1024D000790781F083E0C6DF082E000C990B009786
:1024E00059F42091CB023091CC023093CE0220934C
:1024F000CD02089580E090E00895EE0FFF1F059053
:0A250000F491E02D0994F894FFCF48
:10250A0001000000000000000000000000000000C0
:0A251A00000000006F01C3017D0105
:00000001FF
